{
  "address": "0xF2986E8eC297769E44DF2a71f1123BA7dcA35F57",
  "abi": [
    {
      "anonymous": false,
      "inputs": [
        {
          "indexed": false,
          "internalType": "address",
          "name": "journalAddress",
          "type": "address"
        },
        {
          "indexed": false,
          "internalType": "address",
          "name": "creator",
          "type": "address"
        },
        {
          "indexed": false,
          "internalType": "string",
          "name": "Name",
          "type": "string"
        }
      ],
      "name": "JournalCreated",
      "type": "event"
    },
    {
      "anonymous": false,
      "inputs": [
        {
          "indexed": true,
          "internalType": "address",
          "name": "previousOwner",
          "type": "address"
        },
        {
          "indexed": true,
          "internalType": "address",
          "name": "newOwner",
          "type": "address"
        }
      ],
      "name": "OwnershipTransferred",
      "type": "event"
    },
    {
      "inputs": [
        {
          "internalType": "string",
          "name": "_journalName",
          "type": "string"
        },
        {
          "internalType": "address",
          "name": "_journalOwner",
          "type": "address"
        }
      ],
      "name": "Exists",
      "outputs": [
        {
          "internalType": "bool",
          "name": "exists",
          "type": "bool"
        }
      ],
      "stateMutability": "view",
      "type": "function"
    },
    {
      "inputs": [
        {
          "internalType": "string",
          "name": "_JournalName",
          "type": "string"
        }
      ],
      "name": "createJournal",
      "outputs": [
        {
          "internalType": "address",
          "name": "newJournalAddress",
          "type": "address"
        }
      ],
      "stateMutability": "nonpayable",
      "type": "function"
    },
    {
      "inputs": [],
      "name": "owner",
      "outputs": [
        {
          "internalType": "address",
          "name": "",
          "type": "address"
        }
      ],
      "stateMutability": "view",
      "type": "function"
    },
    {
      "inputs": [],
      "name": "renounceOwnership",
      "outputs": [],
      "stateMutability": "nonpayable",
      "type": "function"
    },
    {
      "inputs": [
        {
          "internalType": "address",
          "name": "newOwner",
          "type": "address"
        }
      ],
      "name": "transferOwnership",
      "outputs": [],
      "stateMutability": "nonpayable",
      "type": "function"
    },
    {
      "inputs": [
        {
          "internalType": "address",
          "name": "",
          "type": "address"
        },
        {
          "internalType": "string",
          "name": "",
          "type": "string"
        }
      ],
      "name": "userToJournal",
      "outputs": [
        {
          "internalType": "bool",
          "name": "initialized",
          "type": "bool"
        },
        {
          "internalType": "address",
          "name": "journalAddress",
          "type": "address"
        }
      ],
      "stateMutability": "view",
      "type": "function"
    }
  ],
  "transactionHash": "0x7f487fd4a720b922e2e8917d028e942b856351967b3befb98df75ccf1f06d61c",
  "args": [],
  "solcInputHash": "6e1462d1ad2fd2a17d3c41ce9ae6d9e8",
  "bytecode": "0x608060405234801561001057600080fd5b5061001a3361001f565b61006f565b600080546001600160a01b038381166001600160a01b0319831681178455604051919092169283917f8be0079c531659141344cd1fd0a4f28419497f9722a3daafe3b4186f6b6457e09190a35050565b6110ed8061007e6000396000f3fe608060405234801561001057600080fd5b50600436106100715760003560e01c80638da5cb5b116100505780638da5cb5b14610116578063f2fde38b1461013b578063fa2fe6fc1461014e57600080fd5b80621e9335146100765780631bc419f0146100e9578063715018a61461010c575b600080fd5b6100c5610084366004610692565b6001602090815260009283526040909220815180830184018051928152908401929093019190912091525460ff81169061010090046001600160a01b031682565b6040805192151583526001600160a01b039091166020830152015b60405180910390f35b6100fc6100f736600461071d565b610161565b60405190151581526020016100e0565b6101146101a2565b005b6000546001600160a01b03165b6040516001600160a01b0390911681526020016100e0565b610114610149366004610670565b61020d565b61012361015c3660046106e0565b6102ef565b6001600160a01b038116600090815260016020526040808220905161018790859061076b565b9081526040519081900360200190205460ff16905092915050565b6000546001600160a01b031633146102015760405162461bcd60e51b815260206004820181905260248201527f4f776e61626c653a2063616c6c6572206973206e6f7420746865206f776e657260448201526064015b60405180910390fd5b61020b6000610552565b565b6000546001600160a01b031633146102675760405162461bcd60e51b815260206004820181905260248201527f4f776e61626c653a2063616c6c6572206973206e6f7420746865206f776e657260448201526064016101f8565b6001600160a01b0381166102e35760405162461bcd60e51b815260206004820152602660248201527f4f776e61626c653a206e6577206f776e657220697320746865207a65726f206160448201527f646472657373000000000000000000000000000000000000000000000000000060648201526084016101f8565b6102ec81610552565b50565b60008151600014156103695760405162461bcd60e51b815260206004820152603160248201527f54726164696e674a6f75726e616c4170703a3a4a6f75726e616c2773206e616d60448201527f652063616e6e6f7420626520656d70747900000000000000000000000000000060648201526084016101f8565b6103738233610161565b156103e65760405162461bcd60e51b815260206004820152602860248201527f54726164696e674a6f75726e616c4170703a3a4a6f75726e616c20616c72656160448201527f647920657869737400000000000000000000000000000000000000000000000060648201526084016101f8565b6000336040516103f5906105ba565b6001600160a01b039091168152602001604051809103906000f080158015610421573d6000803e3d6000fd5b50336000908152600160205260408082209051929350839261044490879061076b565b90815260405190819003602001812080546001600160a01b03808616610100027fffffffffffffffffffffff0000000000000000000000000000000000000000009092169190911760011782557ff2fde38b00000000000000000000000000000000000000000000000000000000835290925084169063f2fde38b906104dd9033906004016001600160a01b0391909116815260200190565b600060405180830381600087803b1580156104f757600080fd5b505af115801561050b573d6000803e3d6000fd5b505050507fad448cc016aa50d0399a7df873e09e3fad7ecb439ede634c9b865cf541293fd882338760405161054293929190610787565b60405180910390a1509392505050565b600080546001600160a01b038381167fffffffffffffffffffffffff0000000000000000000000000000000000000000831681178455604051919092169283917f8be0079c531659141344cd1fd0a4f28419497f9722a3daafe3b4186f6b6457e09190a35050565b6108838061083583390190565b80356001600160a01b03811681146105de57600080fd5b919050565b600082601f8301126105f457600080fd5b813567ffffffffffffffff8082111561060f5761060f610805565b604051601f8301601f19908116603f0116810190828211818310171561063757610637610805565b8160405283815286602085880101111561065057600080fd5b836020870160208301376000602085830101528094505050505092915050565b60006020828403121561068257600080fd5b61068b826105c7565b9392505050565b600080604083850312156106a557600080fd5b6106ae836105c7565b9150602083013567ffffffffffffffff8111156106ca57600080fd5b6106d6858286016105e3565b9150509250929050565b6000602082840312156106f257600080fd5b813567ffffffffffffffff81111561070957600080fd5b610715848285016105e3565b949350505050565b6000806040838503121561073057600080fd5b823567ffffffffffffffff81111561074757600080fd5b610753858286016105e3565b925050610762602084016105c7565b90509250929050565b6000825161077d8184602087016107d5565b9190910192915050565b60006001600160a01b0380861683528085166020840152506060604083015282518060608401526107bf8160808501602087016107d5565b601f01601f191691909101608001949350505050565b60005b838110156107f05781810151838201526020016107d8565b838111156107ff576000848401525b50505050565b7f4e487b7100000000000000000000000000000000000000000000000000000000600052604160045260246000fdfe608060405234801561001057600080fd5b5060405161088338038061088383398101604081905261002f916100ad565b6100383361005d565b600180546001600160a01b0319166001600160a01b03929092169190911790556100dd565b600080546001600160a01b038381166001600160a01b0319831681178455604051919092169283917f8be0079c531659141344cd1fd0a4f28419497f9722a3daafe3b4186f6b6457e09190a35050565b6000602082840312156100bf57600080fd5b81516001600160a01b03811681146100d657600080fd5b9392505050565b610797806100ec6000396000f3fe608060405234801561001057600080fd5b50600436106100725760003560e01c8063bdd111a611610050578063bdd111a6146100b3578063e979e125146100c5578063f2fde38b146100d857600080fd5b806304a9c33a14610077578063715018a61461008c5780638da5cb5b14610094575b600080fd5b61008a61008536600461059d565b6100eb565b005b61008a610194565b600054604080516001600160a01b039092168252519081900360200190f35b61008a6100c13660046105d0565b5050565b61008a6100d3366004610615565b6101fa565b61008a6100e636600461057b565b6102fa565b6000546001600160a01b0316331461014a5760405162461bcd60e51b815260206004820181905260248201527f4f776e61626c653a2063616c6c6572206973206e6f7420746865206f776e657260448201526064015b60405180910390fd5b6001546001600160a01b0383811691161461016457600080fd5b6001805473ffffffffffffffffffffffffffffffffffffffff19166001600160a01b039290921691909117905550565b6000546001600160a01b031633146101ee5760405162461bcd60e51b815260206004820181905260248201527f4f776e61626c653a2063616c6c6572206973206e6f7420746865206f776e65726044820152606401610141565b6101f860006103dc565b565b6000546001600160a01b031633146102545760405162461bcd60e51b815260206004820181905260248201527f4f776e61626c653a2063616c6c6572206973206e6f7420746865206f776e65726044820152606401610141565b600280546001810182556000919091528151805183926008027f405787fa12a823e0f2b7631cc41b3ba8828b3321ca811111fa75cd3aa3bb5ace019161029f91839160200190610439565b5060208281015180516102b89260018501920190610439565b5060408201518160020155606082015181600301556080820151816004015560a0820151816005015560c0820151816006015560e08201518160070155505050565b6000546001600160a01b031633146103545760405162461bcd60e51b815260206004820181905260248201527f4f776e61626c653a2063616c6c6572206973206e6f7420746865206f776e65726044820152606401610141565b6001600160a01b0381166103d05760405162461bcd60e51b815260206004820152602660248201527f4f776e61626c653a206e6577206f776e657220697320746865207a65726f206160448201527f64647265737300000000000000000000000000000000000000000000000000006064820152608401610141565b6103d9816103dc565b50565b600080546001600160a01b0383811673ffffffffffffffffffffffffffffffffffffffff19831681178455604051919092169283917f8be0079c531659141344cd1fd0a4f28419497f9722a3daafe3b4186f6b6457e09190a35050565b82805461044590610710565b90600052602060002090601f01602090048101928261046757600085556104ad565b82601f1061048057805160ff19168380011785556104ad565b828001600101855582156104ad579182015b828111156104ad578251825591602001919060010190610492565b506104b99291506104bd565b5090565b5b808211156104b957600081556001016104be565b80356001600160a01b03811681146104e957600080fd5b919050565b600082601f8301126104ff57600080fd5b813567ffffffffffffffff8082111561051a5761051a61074b565b604051601f8301601f19908116603f011681019082821181831017156105425761054261074b565b8160405283815286602085880101111561055b57600080fd5b836020870160208301376000602085830101528094505050505092915050565b60006020828403121561058d57600080fd5b610596826104d2565b9392505050565b600080604083850312156105b057600080fd5b6105b9836104d2565b91506105c7602084016104d2565b90509250929050565b600080604083850312156105e357600080fd5b823567ffffffffffffffff8111156105fa57600080fd5b610606858286016104ee565b9250506105c7602084016104d2565b60006020828403121561062757600080fd5b813567ffffffffffffffff8082111561063f57600080fd5b90830190610100828603121561065457600080fd5b61065c6106e6565b82358281111561066b57600080fd5b610677878286016104ee565b82525060208301358281111561068c57600080fd5b610698878286016104ee565b60208301525060408301356040820152606083013560608201526080830135608082015260a083013560a082015260c083013560c082015260e083013560e082015280935050505092915050565b604051610100810167ffffffffffffffff8111828210171561070a5761070a61074b565b60405290565b600181811c9082168061072457607f821691505b6020821081141561074557634e487b7160e01b600052602260045260246000fd5b50919050565b634e487b7160e01b600052604160045260246000fdfea2646970667358221220d37909767da52c58c011f726f821151bba7b0b18ee1b5f0df9a214c016b8789a64736f6c63430008070033a2646970667358221220ea5a7f0481d72cac1913fcaf639741390660e363a0d30e4d36551e20ef4c32ef64736f6c63430008070033",
  "devdoc": {
    "kind": "dev",
    "methods": {
      "owner()": {
        "details": "Returns the address of the current owner."
      },
      "renounceOwnership()": {
        "details": "Leaves the contract without owner. It will not be possible to call `onlyOwner` functions anymore. Can only be called by the current owner. NOTE: Renouncing ownership will leave the contract without an owner, thereby removing any functionality that is only available to the owner."
      },
      "transferOwnership(address)": {
        "details": "Transfers ownership of the contract to a new account (`newOwner`). Can only be called by the current owner."
      }
    },
    "version": 1
  },
  "userdoc": {
    "kind": "user",
    "methods": {},
    "version": 1
  },
  "storageLayout": {
    "storage": [
      {
        "astId": 7,
        "contract": "Contracts/TradingJournalApp.sol:TradingJournalApp",
        "label": "_owner",
        "offset": 0,
        "slot": "0",
        "type": "t_address"
      },
      {
        "astId": 208,
        "contract": "Contracts/TradingJournalApp.sol:TradingJournalApp",
        "label": "userToJournal",
        "offset": 0,
        "slot": "1",
        "type": "t_mapping(t_address,t_mapping(t_string_memory_ptr,t_struct(UserJournal)344_storage))"
      }
    ],
    "types": {
      "t_address": {
        "encoding": "inplace",
        "label": "address",
        "numberOfBytes": "20"
      },
      "t_bool": {
        "encoding": "inplace",
        "label": "bool",
        "numberOfBytes": "1"
      },
      "t_mapping(t_address,t_mapping(t_string_memory_ptr,t_struct(UserJournal)344_storage))": {
        "encoding": "mapping",
        "key": "t_address",
        "label": "mapping(address => mapping(string => struct UserJournal))",
        "numberOfBytes": "32",
        "value": "t_mapping(t_string_memory_ptr,t_struct(UserJournal)344_storage)"
      },
      "t_mapping(t_string_memory_ptr,t_struct(UserJournal)344_storage)": {
        "encoding": "mapping",
        "key": "t_string_memory_ptr",
        "label": "mapping(string => struct UserJournal)",
        "numberOfBytes": "32",
        "value": "t_struct(UserJournal)344_storage"
      },
      "t_string_memory_ptr": {
        "encoding": "bytes",
        "label": "string",
        "numberOfBytes": "32"
      },
      "t_struct(UserJournal)344_storage": {
        "encoding": "inplace",
        "label": "struct UserJournal",
        "members": [
          {
            "astId": 341,
            "contract": "Contracts/TradingJournalApp.sol:TradingJournalApp",
            "label": "initialized",
            "offset": 0,
            "slot": "0",
            "type": "t_bool"
          },
          {
            "astId": 343,
            "contract": "Contracts/TradingJournalApp.sol:TradingJournalApp",
            "label": "journalAddress",
            "offset": 1,
            "slot": "0",
            "type": "t_address"
          }
        ],
        "numberOfBytes": "32"
      }
    }
  }
}